:020000040800F2
:10000000280C0020450100084D0100084F010008A0
:1000100051010008530100085501000800000000CC
:100020000000000000000000000000005701000870
:1000300059010008000000005B0100085D01000894
:100040005F0100085F0100085F0100085F01000810
:100050005F0100085F0100085F0100085F01000800
:100060005F0100085F0100085F0100085F010008F0
:100070005F0100085F0100085F0100085F010008E0
:100080005F0100085F0100085F0100085F010008D0
:100090005F0100085F0100085F0100085F010008C0
:1000A0005F0100085F0100085F0100085F010008B0
:1000B0005F0100085F0100085F0100085F010008A0
:1000C0005F0100085F0100085F0100085F01000890
:1000D0005F010008190700085F0100085F010008C0
:1000E0005F0100085F0100085F0100085F01000870
:1000F0005F0100085F0100085F0100085F01000860
:100100005F0100085F0100085F0100085F0100084F
:100110005F0100085F0100085F0100085F0100083F
:100120005F0100085F0100085F0100085F0100082F
:10013000DFF80CD000F018F800480047490B000821
:10014000280C00200648804706480047FEE7FEE7E7
:10015000FEE7FEE7FEE7FEE7FEE7FEE7FEE7FEE777
:10016000B906000831010008064C074D06E0E068BA
:1001700040F0010394E8070098471034AC42F6D3EE
:10018000FFF7DAFFF80C0008180D000830B5044638
:1001900004254FF4302000F06FF80546042D17D1E8
:1001A0000C48006940F002000A49086108464461B1
:1001B000006940F0400008614FF4302000F05CF826
:1001C00005460448006941F6FD710840014908618F
:1001D000284630BD0020024004200B49C96801F0C8
:1001E000010109B101200EE00749C96801F00401CD
:1001F00009B1022007E00449C96801F0100109B102
:10020000032000E0042070470020024003480069FA
:1002100040F0800001490861704700000020024062
:1002200070B504460D460426F00200F025F8064697
:10023000042E11D10948006940F001000749086106
:100240002580F00200F018F806460448006941F6DF
:10025000FE71084001490861304670BD002002402F
:1002600002480349486003484860704723016745D6
:1002700000200240AB89EFCD00B502460423FFF712
:10028000ABFF034603E0FFF7A7FF0346521E012B17
:1002900001D1002AF7D102B90523184600BD2DE986
:1002A000F0410246002500260020002300240027FC
:1002B00091F803C00CF00F0591F803C00CF0100C7E
:1002C000BCF1000F03D091F802C04CEA050591F88B
:1002D00000C0BCF1000F31D0146800202BE04FF0BB
:1002E000010C0CFA00F3B1F800C00CEA03069E42C0
:1002F00020D183004FF00F0C0CFA03F7BC4305FA32
:1003000003FC4CEA040491F803C0BCF1280F06D1A9
:100310004FF0010C0CFA00FCC2F814C00AE091F88E
:1003200003C0BCF1480F05D14FF0010C0CFA00FCE2
:10033000C2F810C0401C0828D1D31460B1F800C026
:10034000BCF1FF0F34DD546800202EE000F1080CF2
:100350004FF0010808FA0CF3B1F800C00CEA0306EC
:100360009E4221D183004FF00F0C0CFA03F7BC43DF
:1003700005FA03FC4CEA040491F803C0BCF1280F11
:1003800005D100F1080C08FA0CF8C2F8148091F8B5
:1003900003C0BCF1480F07D100F1080C4FF0010871
:1003A00008FA0CF8C2F81080401C0828CED354601C
:1003B000BDE8F08110B54FF68071044800F07EFC76
:1003C00003480449086000F0EBFB10BD0028030857
:1003D000004000080000002010B5044609480088CD
:1003E0000BE014F8011B074800F07BFB00BF402125
:1003F000044800F0A9FA0128F9D120780028F0D1AA
:1004000010BD00000038014010B504460C480088BB
:1004100021460B4800F065FB00BF4021084800F072
:1004200093FA0128F9D12112054800F05AFB00BFC8
:100430004021034800F088FA0128F9D110BD0000DE
:100440000038014070B5002100230F22C47804B3A6
:10045000154C246804F4E064C4F5E064210AC1F199
:100460000403CA40447804FA03F184781440214319
:1004700009010E4C0678A155047804F01F050124EB
:10048000AC4005786D11AD0005F1E025C5F80041DF
:1004900009E0047804F01F050124AC40044D0678FF
:1004A000761145F8264070BD0CED00E000E400E058
:1004B00080E100E002490143024A116070470000F8
:1004C0000000FA050CED00E0024A0A400243024B2C
:1004D0001A60704780FFFF1F08ED00E029B1064A4F
:1004E00092690243044B9A6104E0034A9269824391
:1004F000014B9A61704700000010024030B50021A6
:100500000022002400232D4D6D6805F00C0121B15F
:10051000042905D0082923D105E0294D056022E0F2
:10052000274D05601FE0254D6D6805F47012234DC1
:100530006D6805F48034022505EB92421CB9214D0B
:10054000554305600BE01D4D6D6805F400351DB188
:100550001C4D5543056002E0194D5543056002E00E
:10056000174D056000BF00BF144D6D6805F0F00128
:100570000909154D6B5C0568DD4045600F4D6D68E0
:1005800005F4E061090A104D6B5C4568DD4085604B
:100590000A4D6D6805F46051C90A0B4D6B5C4568E6
:1005A000DD40C560054D6D6805F44041890B074D80
:1005B0006B5CC568B5FBF3F5056130BD001002400A
:1005C00000127A0000093D000F0000201F000020EB
:1005D00010B500F001F810BD0CB50020019000909E
:1005E0003348006840F480303149086000BF30482B
:1005F000006800F4003000900198401C01900098C1
:1006000018B90198B0F5A06FF1D12948006800F43D
:10061000003010B10120009001E00020009000980F
:10062000012843D12348006840F0100021490860A8
:100630000846006820F0030008600846006840F0A3
:10064000020008601A484068194948600846406836
:1006500048600846406840F480604860084640684A
:1006600020F47C1048600846406840F4E810486078
:100670000846006840F08070086000BF0C480068C1
:1006800000F000700028F9D00948406820F003000D
:10069000074948600846406840F00200486000BFD3
:1006A0000348406800F00C000828F9D10CBD000098
:1006B000001002400020024010B51348006840F0CE
:1006C00001001149086008464068104908400E4979
:1006D0004860084600680E4908400B490860084613
:1006E000006820F4802008600846406820F4FE007E
:1006F00048604FF41F008860FFF76AFF4FF000600A
:100700000449086010BD0000001002400000FFF81E
:10071000FFFFF6FE08ED00E010B540F2255142481B
:1007200000F01FF900287DD04048008840F6040101
:1007300088420ADB00203E4908803E4908703B4958
:1007400008803D4908703D490870374800F0C4F9F9
:10075000C4B23848007818B139483449098844543B
:10076000A02C12D13348007878B900202F49088096
:100770002F49088001202F49087000202F49087058
:100780002F482A490988445411E02A48007870B15A
:100790002648008803280AD12948C07824490880BF
:1007A00027488078097840EA0120214908802148BB
:1007B000007848B31D48008803282ADB1B480088BE
:1007C000C01E1B490988884223D100201749088090
:1007D000184908701649088019484078A12807D19F
:1007E00000201249088013490870FFF7E3FD10E06C
:1007F000134840781A2809D100200C4908800D4977
:10080000087001200D49087003E00BE001200A493F
:10081000087006480088401C0449088020210248CE
:1008200000F077F810BD00000038014008000020FB
:100830000C0000200B0000200A0000200E00002009
:100840002400002000B587B001210420FFF746FEF8
:1008500001218803FFF742FE4FF40070ADF8180045
:1008600018208DF81B0003208DF81A0006A92248D5
:10087000FFF715FD4FF48060ADF8180004208DF8E7
:100880001B0003208DF81A0006A91B48FFF707FD7F
:100890004FF4E13002900020ADF80C00ADF80E00EE
:1008A000ADF81000ADF814000C20ADF8120002A94C
:1008B000124800F0A5F84021104800F021F801226C
:1008C00040F225510D4800F076F84FF4E060FFF754
:1008D000F1FD25208DF8040001208DF805008DF82C
:1008E00006008DF8070001A8FFF7ACFD01210348C1
:1008F00000F01EF807B000BD0008014000380140BC
:1009000001F40072B2F5007F00D100BFCA4302803B
:10091000704710B50022002340F66A14A14200D1AE
:1009200000BF0A1201249440A3B2DC43048010BD2E
:1009300021B1828942F40052828104E082894DF61D
:10094000FF731A408281704702460020B1F5007F94
:1009500000D100BF13880B400BB1012000E0002044
:10096000704770B50246002400230025002040F6A1
:100970006A16B14200D100BFC1F3421501F01F0356
:10098000012606FA03F3012D02D19689334006E0D1
:10099000022D02D1168A334001E0968A33400C12B0
:1009A000012606FA04F41688344013B10CB1012074
:1009B00000E0002070BDF0B50346002400260025AD
:1009C000002040F66A17B94200D100BF1846C1F3B3
:1009D000421401F01F06012707FA06F5012C01D188
:1009E0000C3004E0022C01D1103000E014301AB1B8
:1009F00007682F43076002E00768AF430760F0BD58
:100A00002DE9F04786B005460E460024A24600BFF9
:100A1000A1460027B08900B100BF2F462C8A4CF6B2
:100A2000FF700440F08804432C82AC894EF6F3102A
:100A30000440B08831890843718908430443AC817C
:100A4000AC8A4FF6FF400440B0890443AC8201A851
:100A5000FFF754FD1F48874202D1DDF810A001E0E6
:100A6000DDF80CA0A88900F4004040B10AEBCA00F0
:100A700000EB0A1031684900B0FBF1F807E00AEB1F
:100A8000CA0000EB0A1031688900B0FBF1F864205D
:100A9000B8FBF0F004012009642101FB1089A8894A
:100AA00000F4004040B1322000EBC900B0FBF1F08F
:100AB00000F00700044308E0322000EB0910642135
:100AC000B0FBF1F000F00F0004432C8106B0BDE84C
:100AD000F08700000038014001468888C0F3080014
:100AE0007047C1F308028280704702E008C8121FF5
:100AF00008C1002AFAD170477047002001E001C107
:100B0000121F002AFBD170470048704724000020C4
:100B1000004870470A000020004870470E0000207F
:100B200070B5FFF7F5FF0446FFF7F6FF054620789E
:100B300018B10020207000F077F8287818B1002054
:100B4000287000F053F870BD10B500214FF0006020
:100B5000FFF7BAFC62B6FFF775FE0AA0FFF73CFC90
:100B60000C4800F019F84FF28001884202D100F0E1
:100B70003DF805E000F014F801E0FFF7D1FFFCE7D5
:100B8000002010BD626F6F746C6F616465720D0A36
:100B90000000000000280308014608887047000094
:100BA00008B504A0006800900421684600F004F82D
:100BB00008BD0000A080000070B505460E460A483A
:100BC000008800240CE0295D0748FFF78AFF00BF7A
:100BD00040210548FFF7B8FE0128F9D1601C84B216
:100BE000B442F0DB70BD00000038014008B54FF2A0
:100BF00080010A4800F062F872B609484068009027
:100C00000849009808600649086880F3088800BF12
:100C100004480068804762B608BD00000028030849
:100C200000400008040000202DE9F05FFFF76CFF92
:100C30000746FE78B87840EA06263046FFF7E4FB20
:100C4000301D86B21C480068A0F1006A4FEADA291C
:100C50004FF0006000EBC92BFFF702FB5846FFF78F
:100C600095FA0424002519E0601CB04209DA17F84F
:100C700000804FF47F4000EA0828385D40EA080809
:100C800001E017F804800C49096801EB4500414672
:100C9000FFF7C6FAA01C84B2681C85B2B442E3DB3D
:100CA0000548006800EB450003490860FFF7AEFA0D
:100CB000FFF776FFBDE8F09F000000202DE9F0412E
:100CC00004468846B4F1006F02D20120BDE8F081ED
:100CD000A4F10066F50A4FF0006000EBC527FFF7AE
:100CE000BFFA3846FFF752FA41462046FFF798FA16
:100CF000FFF78CFA0020E9E7180D0008000000203B
:100D000024000000EA0A00083C0D0008240000202E
:100D1000040C0000FA0A000800400008000000006F
:100D200000000000000000000000000102030401B8
:0C0D30000203040607080902040608007C
:0400000508000131BD
:00000001FF
