:020000040800F2
:10000000300E0020450100084D0100084F01000896
:1000100051010008530100085501000800000000CC
:100020000000000000000000000000005701000870
:1000300059010008000000005B0100085D01000894
:100040005F0100085F0100085F0100085F01000810
:100050005F0100085F0100085F0100085F01000800
:100060005F0100085F0100085F0100085F010008F0
:100070005F0100085F0100085F0100085F010008E0
:100080005F0100085F0100085F0100085F010008D0
:100090005F0100085F0100085F0100085F010008C0
:1000A0005F0100085F0100085F0100085F010008B0
:1000B0005F0100085F0100085F0100085F010008A0
:1000C0005F0100085F0100085F0100085F01000890
:1000D0005F010008F10600085F0100085F010008E9
:1000E0005F0100085F0100085F0100085F01000870
:1000F0005F0100085F0100085F0100085F01000860
:100100005F0100085F0100085F0100085F0100084F
:100110005F0100085F0100085F0100085F0100083F
:100120005F0100085F0100085F0100085F0100082F
:10013000DFF80CD000F02AF800480047650B0008F3
:10014000300E00200648804706480047FEE7FEE7DD
:10015000FEE7FEE7FEE7FEE7FEE7FEE7FEE7FEE777
:10016000910600083101000840EA01039B0703D013
:1001700009E008C9121F08C0042AFAD203E011F8E6
:10018000013B00F8013B521EF9D27047064C074D67
:1001900006E0E06840F0010394E807009847103457
:1001A000AC42F6D3FFF7C8FF080E0008280E00087F
:1001B00030B5044604254FF4302000F06FF80546B2
:1001C000042D17D10C48006940F002000A4908616B
:1001D00008464461006940F0400008614FF4302057
:1001E00000F05CF805460448006941F6FD710840DE
:1001F00001490861284630BD0020024004200B4917
:10020000C96801F0010109B101200EE00749C96880
:1002100001F0040109B1022007E00449C96801F0B6
:10022000100109B1032000E00420704700200240C3
:100230000348006940F080000149086170470000F0
:100240000020024070B504460D460426F00200F07E
:1002500025F80646042E11D10948006940F0010036
:10026000074908612580F00200F018F806460448A6
:10027000006941F6FE71084001490861304670BDD1
:100280000020024002480349486003484860704724
:100290002301674500200240AB89EFCD00B502463F
:1002A0000423FFF7ABFF034603E0FFF7A7FF034676
:1002B000521E012B01D1002AF7D102B9052318469D
:1002C00000BD2DE9F0410246002500260020002354
:1002D0000024002791F803C00CF00F0591F803C02B
:1002E0000CF0100CBCF1000F03D091F802C04CEAE6
:1002F000050591F800C0BCF1000F31D01468002052
:100300002BE04FF0010C0CFA00F3B1F800C00CEA3E
:1003100003069E4220D183004FF00F0C0CFA03F726
:10032000BC4305FA03FC4CEA040491F803C0BCF199
:10033000280F06D14FF0010C0CFA00FCC2F814C0D3
:100340000AE091F803C0BCF1480F05D14FF0010C51
:100350000CFA00FCC2F810C0401C0828D1D314606D
:10036000B1F800C0BCF1FF0F34DD546800202EE06E
:1003700000F1080C4FF0010808FA0CF3B1F800C0C6
:100380000CEA03069E4221D183004FF00F0C0CFAB9
:1003900003F7BC4305FA03FC4CEA040491F803C0DC
:1003A000BCF1280F05D100F1080C08FA0CF8C2F8CE
:1003B000148091F803C0BCF1480F07D100F1080C7C
:1003C0004FF0010808FA0CF8C2F81080401C082809
:1003D000CED35460BDE8F08110B5002002490880FA
:1003E00000F02AFC10BD00000000002010B50446FB
:1003F000094800880BE014F8011B074800F051FB86
:1004000000BF4021044800F07FFA0128F9D120788C
:100410000028F0D110BD00000038014070B5002167
:1004200000230F22C47804B3154C246804F4E0645C
:10043000C4F5E064210AC1F10403CA40447804FA17
:1004400003F184781440214309010E4C0678A1552C
:10045000047804F01F050124AC4005786D11AD004F
:1004600005F1E025C5F8004109E0047804F01F0516
:100470000124AC40044D0678761145F8264070BD45
:100480000CED00E000E400E080E100E002490143FF
:10049000024A1160704700000000FA050CED00E010
:1004A000024A0A400243024B1A60704780FFFF1F56
:1004B00008ED00E029B1064A92690243044B9A61B3
:1004C00004E0034A92698243014B9A61704700003D
:1004D0000010024030B500210022002400232D4DE1
:1004E0006D6805F00C0121B1042905D0082923D13C
:1004F00005E0294D056022E0274D05601FE0254DF0
:100500006D6805F47012234D6D6805F48034022582
:1005100005EB92421CB9214D554305600BE01D4D82
:100520006D6805F400351DB11C4D5543056002E0B2
:10053000194D5543056002E0174D056000BF00BF2F
:10054000144D6D6805F0F0010909154D6B5C0568E7
:10055000DD4045600F4D6D6805F4E061090A104DFE
:100560006B5C4568DD4085600A4D6D6805F460513F
:10057000C90A0B4D6B5C4568DD40C560054D6D6873
:1005800005F44041890B074D6B5CC568B5FBF3F57D
:10059000056130BD0010024000127A0000093D00E4
:1005A000090000201900002010B500F001F810BD6E
:1005B0000CB50020019000903348006840F4803072
:1005C0003149086000BF3048006800F400300090F6
:1005D0000198401C0190009818B90198B0F5A06FDF
:1005E000F1D12948006800F4003010B101200090DA
:1005F00001E0002000900098012843D123480068C2
:1006000040F01000214908600846006820F003000F
:1006100008600846006840F0020008601A48406818
:10062000194948600846406848600846406840F4F8
:10063000806048600846406820F47C1048600846A6
:10064000406840F4E81048600846006840F0807058
:10065000086000BF0C48006800F000700028F9D066
:100660000948406820F00300074948600846406890
:1006700040F00200486000BF0348406800F00C00F2
:100680000828F9D10CBD00000010024000200240F3
:1006900010B51348006840F0010011490860084691
:1006A0004068104908400E494860084600680E49F5
:1006B00008400B4908600846006820F48020086064
:1006C0000846406820F4FE0048604FF41F00886030
:1006D000FFF76AFF4FF000600449086010BD00009A
:1006E000001002400000FFF8FFFFF6FE08ED00E0FA
:1006F00010B540F225513C4800F013F9002871D0A4
:100700003A48008840F6030188420ADB0020384955
:1007100008803849087035490880374908703749DA
:100720000870314800F0B8F9C4B2A02C0BD10020F9
:100730002E4908802E49088001202E49087000208B
:100740002E49087030E02B48007870B127480088A7
:1007500002280AD12648048029484078244909788B
:1007600040EA0120224908801EE02248007880B13A
:100770001E48008801280CD100201C4908801D4912
:1007800008701D4908701A2C0ED101201B490870F1
:100790000AE01848007838B114480088012803D1CD
:1007A000A12C01D1FFF718FE1248007838B10F488C
:1007B00001880088401C0D4A1080114844540B48A1
:1007C0000088C01E0A490988884207D100200749CD
:1007D0000880084908700120074908702021024854
:1007E00000F077F810BD0000003801400200002042
:1007F0000600002005000020040000200800002062
:100800002800002000B587B001210420FFF752FE28
:1008100001218803FFF74EFE4FF40070ADF8180079
:1008200018208DF81B0003208DF81A0006A9224815
:10083000FFF747FD4FF48060ADF8180004208DF8F5
:100840001B0003208DF81A0006A91B48FFF739FD8D
:100850004FF4E13002900020ADF80C00ADF80E002E
:10086000ADF81000ADF814000C20ADF8120002A98C
:10087000124800F0A5F84021104800F021F80122AC
:1008800040F225510D4800F076F84FF4E060FFF794
:10089000FDFD25208DF8040001208DF805008DF860
:1008A00006008DF8070001A8FFF7B8FD01210348F5
:1008B00000F01EF807B000BD0008014000380140FC
:1008C00001F40072B2F5007F00D100BFCA4302807C
:1008D000704710B50022002340F66A14A14200D1EF
:1008E00000BF0A1201249440A3B2DC43048010BD6F
:1008F00021B1828942F40052828104E082894DF65E
:10090000FF731A408281704702460020B1F5007FD4
:1009100000D100BF13880B400BB1012000E0002084
:10092000704770B50246002400230025002040F6E1
:100930006A16B14200D100BFC1F3421501F01F0396
:10094000012606FA03F3012D02D19689334006E011
:10095000022D02D1168A334001E0968A33400C12F0
:10096000012606FA04F41688344013B10CB10120B4
:1009700000E0002070BDF0B50346002400260025ED
:10098000002040F66A17B94200D100BF1846C1F3F3
:10099000421401F01F06012707FA06F5012C01D1C8
:1009A0000C3004E0022C01D1103000E014301AB1F8
:1009B00007682F43076002E00768AF430760F0BD98
:1009C0002DE9F04786B005460E460024A24600BF3A
:1009D000A1460027B08900B100BF2F462C8A4CF6F3
:1009E000FF700440F08804432C82AC894EF6F3106B
:1009F0000440B08831890843718908430443AC81BD
:100A0000AC8A4FF6FF400440B0890443AC8201A891
:100A1000FFF760FD1F48874202D1DDF810A001E01A
:100A2000DDF80CA0A88900F4004040B10AEBCA0030
:100A300000EB0A1031684900B0FBF1F807E00AEB5F
:100A4000CA0000EB0A1031688900B0FBF1F864209D
:100A5000B8FBF0F004012009642101FB1089A8898A
:100A600000F4004040B1322000EBC900B0FBF1F0CF
:100A700000F00700044308E0322000EB0910642175
:100A8000B0FBF1F000F00F0004432C8106B0BDE88C
:100A9000F08700000038014001468888C0F3080054
:100AA0007047C1F308028280704702E008C8121F35
:100AB00008C1002AFAD170477047002001E001C147
:100AC000121F002AFBD1704710B5002821D0114B0E
:100AD0000022001F196803E0814203D80A464968D2
:100AE0000029F9D152B11368841A9C4204D10068DC
:100AF00018441060104602E0506000E0186039B100
:100B000002680B1A934203D10B681A4402604968C9
:100B1000416010BD200000200048704728000020E0
:100B2000004870470400002001480088704700001A
:100B300006000020004870470800002070B5FFF74D
:100B4000EFFF0446FFF7F6FF0546207818B10020B6
:100B5000207000F0AFF8287818B10020287000F05D
:100B600091F870BDFFF74EFE0FA0FFF73FFC80210C
:100B7000114800F02BF9104800F05AF84FF28001AC
:100B800088420AD14FF480410005FFF789FCFFF746
:100B90007FFD0A480A49086001E000F04DF801E0D5
:100BA000FFF7CCFFFCE70000626F6F746C6F61644D
:100BB00065720D0A000000000028000800400008CF
:100BC00008ED00E0F0B50B30154D20F007010024D2
:100BD000144A0FE003688B420BD38B4205D95E1A8F
:100BE00043184768C3E9006700E04368136002C028
:100BF00004E0021D10680028ECD12046002802D134
:100C0000286808B10020F0BD064A07481060074A6E
:100C1000121A22F00702C0E9002401202860D7E759
:100C2000240000202000002034080020300A00208A
:100C3000014608887047000008B504A000680090CD
:100C40000221684600F004F808BD0000A080000002
:100C500070B505460E460A48008800240CE0295D60
:100C60000748FFF71EFF00BF40210548FFF74CFE75
:100C70000128F9D1601C84B2B442F0DB70BD0000E1
:100C80000038014010B54FF28001074800F09EF88F
:100C90004FF480414803FFF703FCFFF7F9FC0348DA
:100CA0000349086010BD000000280008004000084B
:100CB00008ED00E02DE9F047FFF736FFC4B2A0468B
:100CC0004046FFF77FFF0746204604EBD0714910EE
:100CD00001F101094FEA4900FFF774FF0646FFF7EB
:100CE0001BFF8246224639460AF10300FFF73CFA11
:100CF00000250CE0681C385C26F81500785D16F8B5
:100D0000151040EA012026F81500A81C85B204EB56
:100D1000D471B5EB610FEDDB204604EBD0714910C7
:100D2000A4EB410139B1611E7A5C04EBD07149102A
:100D3000491C26F811200C4909880C4A02EBC120F5
:100D40001214314600F014F807480088401C064988
:100D50000880FFF771FF3046FFF7B6FE3846FFF711
:100D6000B3FEBDE8F087000000000020004000084E
:100D70002DE9F047054688461646B5F1006F04D3C5
:100D800005EB46001049884202D30120BDE8F087F8
:100D9000A5F100694FEAD9274FF0006000EBC72AA0
:100DA000FFF770FA5046FFF703FA002406E038F820
:100DB000141005EB4400FFF745FA641CB442F6D367
:100DC000FFF736FA0020E1E7000004082DE9F041C2
:100DD00004468846B4F1006F02D20120BDE8F081DC
:100DE000A4F10066F50A4FF0006000EBC527FFF79D
:100DF00049FA3846FFF7DCF941462046FFF722FA68
:100E0000FFF740FA0020E9E7280E00080000002064
:100E100028000000AA0A0008500E00082800002040
:100E2000080E0000BA0A00080000000000000000E0
:100E30000000000000010203040102030406070889
:100E40000902040608000000000000000000000085
:0400000508000145A9
:00000001FF
